:100000000C9489030C94D0030C94D0030C94D0036B
:100010000C94D0030C94D0030C94D0030C94D00314
:100020000C94D0030C94D0030C94B42E0C94882F11
:100030000C94FA280C94D0030C94D0030C94D003A5
:100040000C94D0030C94D0030C94D0030C94D003E4
:100050000C94D0030C9451290C94D0030C94D0032D
:100060000C94D0030C94D0030C94D0030C94D003C4
:100070000C94D0030C94D0030C94D0030C94D003B4
:100080000C94D0030C94D0030C94D0030C94D003A4
:100090000C94D0030C94D0030C94D0030C94D00394
:1000A0000C94D0030C94D0030C94D003C800BE0071
:1000B000B400000007022BFFFFFF00000000070252
:1000C00080FFFFFF0000000007020000FFFF0000AC
:1000D000000029001E001F00200021002200230034
:1000E00024002500260027002D002E002A002B4189
:1000F00014001A000800150017001C0018000C005E
:10010000120013002F0030003100394204001600A5
:10011000070009000A000B000D000E000F0033005D
:10012000340028000000E1001D001B00060019003B
:10013000050011001000360037003800E1004C00C7
:100140000000E000E300E200520051002C005000EB
:100150004F000000E2000151E04200000000005C9E
:100160003A003B003C003D003E003F0040004100A3
:1001700042004300440045004C002B4114001A008B
:100180000800150017001C0018000C0012001300D6
:100190002F0030003100394204001600070009002A
:1001A0000A000B000D000E000F0033003400280081
:1001B0000000E1001D001B000600190005001100F1
:1001C0001000C25CC35CC55CE1004C000000E000B4
:1001D000E300E200BD00BE002C00AA00A900000060
:1001E000E2000151E04200000000FD00FE00FF00BF
:1001F0003C003D003E003F00400041004200430003
:10020000440045004C002B41F400F50008001500A7
:1002100017001C0018000C00120013002F00300003
:100220003100394204001600070009000A000B00E3
:100230000D000E000F003300340028000000E10024
:100240001D001B00060019000500110010003600FB
:1002500037003800F4004C000000E000E300E2004A
:10026000F000F1002C00F200F3000000E200015168
:10027000E0420000000000000000000000002A2B07
:100280002800000000000000000000000000000046
:100290000029000000002C1E3420212224342627AF
:1002A000252E362D3738271E1F20212223242526D0
:1002B0003333362E37381F0405060708090A0B0C9E
:1002C0000D0E0F101112131415161718191A1B1CE6
:1002D0001D2F3130232D350405060708090A0B0CA4
:1002E0000D0E0F101112131415161718191A1B1CC6
:1002F0001D2F3130354C00000000000000000000D0
:1003000000000000000000000000000000000000ED
:10031000000000000000000000007E0F00D4FFFF7E
:10032000FFC7000000786432141E140A052223253A
:100330002628292A2C2D2F3032333536383A3B3DAA
:100340003E4042434547494A4C4E505153555759F8
:100350005A5C5E6062646668696B6D6F7173757715
:10036000797B7D7F81838587898A8C8E9092949614
:10037000989A9C9E9FA1A3A5A7A8AAACAEAFB1B323
:10038000B4B6B8B9BBBCBEBFC1C2C3C5C6C7C9CA73
:10039000CBCCCDCED0D1D2D2D3D4D5D6D7D7D8D935
:1003A000D9DADADBDBDBDCDCDCDCDCDDDDDDDDDC93
:1003B000DCDCDCDCDBDBDBDADAD9D9D8D7D7D6D5A5
:1003C000D4D3D2D2D1D0CECDCCCBCAC9C7C6C5C367
:1003D000C2C1BFBEBCBBB9B8B6B4B3B1AFAEACAAB4
:1003E000A8A7A5A3A19F9E9C9A98969492908E8C64
:1003F0008A89878583817F7D7B79777573716F6D3E
:100400006B6968666462605E5C5A59575553515017
:100410004E4C4A4947454342403E3D3B3A383635CB
:100420003332302F2D2C2A292826252322000101A2
:1004300001010101010101020202020202020202A3
:100440000303030303030303040404040404040573
:100450000505050506060606060707070707080837
:100460000808090909090A0A0A0B0B0B0C0C0C0DE8
:100470000D0D0E0E0E0F0F0F101011111112121381
:10048000131414151516161717181819191A1A1BFC
:100490001B1C1D1D1E1E1F2020212222232424255B
:1004A0002626272829292A2B2C2D2D2E2F30313294
:1004B00032333435363738393A3B3C3D3E3F4041A4
:1004C00042434445464748494A4C4D4E4F5051538C
:1004D00054555658595A5B5D5E5F61626465666843
:1004E000696B6C6D6F7072737577787A7B7D7E80C7
:1004F00082838587888A8C8E8F91939596989A9C13
:100500009EA0A2A3A5A7A9ABADAFB1B3B5B7BABC26
:10051000BEC0C2C4C6C9CBCDCFD1D4D6D8DBDDDFF7
:10052000E2E4E7E9EBEEF0F3F5F8FAFDFF16034C31
:1005300000490042005200450020004D0049004E95
:1005400000490000000E034B0041004900530045E4
:1005500000520000000403090409027400040100B1
:10056000A0FA0904000001030101000921110100A2
:10057000012240000705810308000A090401000266
:100580000300000009211101000122220007058259
:1005900003200001070503032000010904020001F4
:1005A0000300000009211101000122B600070584A3
:1005B0000320000A090403000103000000092111BF
:1005C000010001221A000705850308000A12010034
:1005D00002000000084D4C234C01000102000105FF
:1005E000010904A101A10005010930093115812586
:1005F0007F950275088102C0C00660FF0961A101F4
:100600000962150026FF009520750881020963150F
:100610000026FF00952075089102C005010902A17E
:100620000185020901A10005091901290815002504
:1006300001950875018102050109300931158125EF
:100640007F95027508810609381581257F9501750A
:10065000088106050C0A38021581257F9501750869
:100660008106C0C005010980A101850319012AB7CF
:1006700000150126B700950175108100C0050C0911
:1006800001A101850419012AA002150126A00295E5
:100690000175108100C005010906A1018505050746
:1006A00019E029E715002501950875018102050764
:1006B000190029EF1500250195F075018102050843
:1006C000190129059505750191029501750391019F
:1006D000C005010906A101050719E029E715002554
:1006E00001950875018102950175088101050719B9
:1006F0000029FF150026FF009506750881000508F2
:10070000190129059505750191029501750391015E
:10071000C00011241FBECFEFDAE0DEBFCDBF04B6AC
:1007200003FE27C08091180390911903A0911A032A
:10073000B0911B038730904BA740B04BD1F410927F
:1007400018031092190310921A0310921B0314BE7F
:1007500084B7877F84BF0FB6F894A8958091600016
:10076000886180936000109260000FBEE0E0F8E3C3
:10077000099511E0A0E0B1E0E8E5F9E602C00590D6
:100780000D92A43CB107D9F723E0A4ECB1E001C07D
:100790001D92A831B207E1F70E947E160C946F34C7
:1007A0000C940000873901F178F48633F9F030F4C5
:1007B0008433F1F08533F1F08FE108958439E1F06D
:1007C0008639D1F781E20895843FC1F030F4803F4B
:1007D000B9F0813F89F781E00895863F99F0A0F054
:1007E000873F51F787E0089582E2089585E20895F2
:1007F00083E2089584E2089580E2089584E00895F4
:1008000080E0089586E0089585E0089596E8909345
:100810007A00982F9072906890937B008F719091DE
:100820000001892B80937C0080917A008064809302
:100830007A0080917A0086FDFCCF8091780020912B
:10084000790090917A009F7790937A00922F089583
:100850000E94D2030C9406048091B2028823B1F066
:1008600086E30E942804883C924034F51092B2023C
:100870006091E20170E090E080E00E94780743E040
:1008800064E00E942B210E946A0516C086E30E9444
:100890002804893C924054F181E08093B202609137
:1008A000E20170E090E080E00E94780743E064E0BD
:1008B0000E942B210E9453058091B3028823D9F016
:1008C00086E30E942804893391405CF11092B302C0
:1008D0006091E20170E090E080E00E94780744E0DF
:1008E00064E00E942B210E946A051BC08091B20225
:1008F000882311F3B5CF86E30E9428048833914002
:1009000054F581E08093B3026091E20170E090E0E1
:1009100080E00E94780744E064E00E942B210E945E
:1009200053058091B4028823D9F087E90E942804F6
:10093000883C92405CF51092B4026091E20170E054
:1009400090E080E00E94780746E064E00E942B215E
:100950000E946A051BC08091B302882311F3B0CFB7
:1009600087E90E942804893C92404CF181E0809301
:10097000B4026091E20170E090E080E00E947807AC
:1009800046E064E00E942B210E9453058091B5024D
:100990008823D1F087E90E9428048933914074F1BB
:1009A0001092B5026091E20170E090E080E00E9458
:1009B000780747E064E00E942B210C946A0580913F
:1009C000B402882319F3B1CF87E90E942804883341
:1009D000914084F481E08093B5026091E20170E07F
:1009E00090E080E00E94780747E064E00E942B21BD
:1009F0000C9453058091B5028111CCCF08958CEAF7
:100A000090E090936C0280936B020895CF93C82F6F
:100A100061E00E94EE0B682F81E00E940F1D62E0F2
:100A20008C2F0E94EE0B682F82E00E940F1D8C2FEE
:100A3000CF91089581FB662760F980E00E940F1D29
:100A400081E008959C013A9521153F4150F5FC0144
:100A5000EE27F170BC0166277270AC014427547018
:100A60009C012227387094FF0EC080E1EF2B09F41F
:100A700080E0672B09F08062452B09F08064232B0E
:100A800089F08068089581E0EF2B09F480E0672BFE
:100A900009F08260452B09F08460232B19F08860EF
:100AA000089580E00895CF93DF93EC010E94220522
:100AB0009E01205E31092830310510F0209739F46D
:100AC0000E941D098C2FDF91CF910C9416080E9473
:100AD0005B0BF8CFCF93DF93EC010E94A808CE0107
:100AE0000E9422059E01205E31092830310510F058
:100AF000CD2B21F4DF91CF910C942409DF91CF917C
:100B00000C94620BCF93DF93EC010E945305CE014E
:100B1000DF91CF910C946A0581E0089581E00895FA
:100B20000C948E0508950C9492051F93CF93DF9338
:100B300000D000D00F92CDB7DEB749835A836B83C4
:100B40003091C60189819A8131111DC06623B9F0A7
:100B50002223A9F00E948B0C182F682F89819A817B
:100B60000E94370C69817A81812F0F900F900F902E
:100B70000F900F90DF91CF911F910C94E1210E9473
:100B8000630C182FEFCF0E948B0C69817A81EDCF17
:100B9000FC01262F408151816281738184810C94F4
:100BA000950581E00895CF93DF93EC0160E00E940A
:100BB000C805BE01DF91CF910C949305E1E0F0E010
:100BC000DF0102C0AA0FBB1F6A95E2F7BD01DF017A
:100BD00002C0AA0FBB1F4A95E2F76A2B01C0EE0FB5
:100BE0002A95EAF7962F9823961302C08E2B089524
:100BF000E0958E230895242F462F682F8091E201DF
:100C00000E94DE050C94E50B0E94EE140E94CA07B8
:100C10000E94C1220C9409150C940B1508950E9492
:100C20007F0B0E940E062FEF84E39CE02150804052
:100C30009040E1F700C000000C9475290F931F93BA
:100C4000CF93DF938C0161E00E94C805EC010E9404
:100C5000C91E882329F0F801828181110E94DD1EBE
:100C6000B801CE010E94C81F882309F454C0B801FE
:100C7000CE010E949005882309F44DC0B801CE0131
:100C80000E944C23882309F446C0B801CE010E947B
:100C9000D623882309F43FC0B801CE010E9428243E
:100CA0008823C9F1B801CE010E944B25882399F110
:100CB000B801CE010E94011E882369F1B801CE015E
:100CC0000E949D25882339F1F8018281882361F0F3
:100CD000CE3DFCE5DF0729F170F4C115ECE5DE0738
:100CE000C1F0C63DDC4501F1C801DF91CF911F91F4
:100CF0000F910C948C05CB358DE5D807D9F0CC3508
:100D0000EDE5DE07A1F0CA35DD4571F70E945C1004
:100D1000EBCF0E940F0680E0DF91CF911F910F91E2
:100D200008950E94CC11F7CF0E94D31EF4CF0E94E9
:100D30005310DACF0E945F10D7CFDF92EF92FF926D
:100D40000F931F93CF93DF93E82FF0E0EA58FD4F06
:100D5000D490282F26952695269530E0F901EA5E55
:100D6000FC4F0491877010E0082E02C0159507957E
:100D70000A94E2F701701127F901EA5FFC4FE49051
:100D8000F12C082E02C0F594E7940A94E2F791E062
:100D9000E922FF24F901EA50FD4FC491D0E002C0DE
:100DA000D595C7958A95E2F7C170DD270115110524
:100DB00019F081EE0E941608E114F10419F086EE94
:100DC0000E9416088D2D0E941509EF2819F086EE55
:100DD0000E94A808012B19F081EE0E94A808CD2BD3
:100DE00051F08CE2DF91CF911F910F91FF90EF9026
:100DF000DF900C941509DF91CF911F910F91FF9017
:100E0000EF90DF900895EF92FF920F931F93CF938F
:100E1000DF93EC01162F0AE08881882309F454C07F
:100E2000813009F04EC08981813099F47E0122E041
:100E3000E20EF11C8A810E941509E7012196812F9B
:100E4000815050F3EFE9FFE03197F1F700C0000067
:100E5000F7CF823041F47E0182E0E80EF11C8A81F6
:100E60000E941608EACF833041F47E01E2E0EE0EE4
:100E7000F11C8A810E94A808E0CF843011F02196ED
:100E8000DDCF2A81229690E080E0AE014F5F5F4F78
:100E90002053330B2A30310548F0019778F2EFE9FF
:100EA000FFE03197F1F700C00000F7CF089FB001D5
:100EB000099F700D1124C901860F971F2981EA012E
:100EC000E4CF0E949D06BACFDF91CF911F910F9181
:100ED000FF90EF90089560E00C940307982F9F70A7
:100EE0009A50963018F0805D0C949D06895AFCCF7C
:100EF000CF92DF92EF92FF926C01EE24FF2420E06C
:100F0000C114D104E104F10419F0C701B60120E1D4
:100F1000C72ED82EE92EFF24C114D104E104F10418
:100F200019F0285FC701B6016B017C0154E0F6940B
:100F3000E794D794C7945A95D1F7C114D104E1042A
:100F4000F10419F02C5FC701B6016B017C0142E08E
:100F5000F694E794D794C7944A95D1F7C114D10475
:100F6000E104F10419F02E5FC701B601969587954B
:100F700077956795672B682B692B09F02F5F822F78
:100F8000FF90EF90DF90CF90089508950C94C507DF
:100F90000C941A050895CF93C82F0E94C6078C2F72
:100FA000CF910C94C807CF93DF93CDB7DEB72B97C3
:100FB0000FB6F894DEBF0FBECDBF4F835887698749
:100FC0007A878B8761110E9485101E821D8285E0C1
:100FD000FE013796DE01119601900D928A95E1F798
:100FE0008C819D81892B89F449815A816B817C8117
:100FF0008D819E810E94820F2B960FB6F894DEBFE2
:101000000FBECDBFDF91CF91089589819A81892349
:101010008F3F51F3CE0101960E94D1058111E4CF9B
:10102000EBCFFC01808191810C94B80CCF93C82F39
:10103000882309F48BC08238C1F40E94872781FD80
:1010400085C089E30E941C100E94B5102FEF81EE2D
:1010500094E0215080409040E1F700C0000089E317
:101060000E942310CF910C94B5108338A1F40E94F4
:10107000872780FD6BC083E50E941C100E94B5107D
:101080002FEF81EE94E0215080409040E1F700C0C6
:10109000000083E5E5CF8438A1F40E94872782FD14
:1010A00055C087E40E941C100E94B5102FEF81EEFE
:1010B00094E0215080409040E1F700C0000087E4B8
:1010C000CFCF8CEF8C0F813A90F46C2F809113016D
:1010D000909114010E94FE27882329F08C2F0E94F2
:1010E00023100E94B5108C2F0E941C10BBCF80E2F1
:1010F0008C0F883048F4C77081E001C0880FCA9512
:10110000EAF70E946510AECFEBE5EC0FE33040F458
:10111000F0E0E45AFE4F808190E0CF910C94BE271E
:10112000E8E5EC0FE73150F4F0E0EE0FFF1FE25D71
:10113000FE4F80819181CF910C94D427C03F30F035
:101140008C2F0E940C17CF910C94DF17CF9108952C
:10115000882309F452C0823871F40E94872781FFE6
:101160004CC089E30E941C100E94B51089E30E94C4
:1011700023100C94B510833859F40E94872780FF00
:101180003CC083E50E941C100E94B51083E5EFCFA0
:10119000843859F40E94872782FF2FC087E40E9479
:1011A0001C100E94B51087E4E2CF9CEF980F913A93
:1011B000F0F290E2980F983050F4877091E001C0FF
:1011C000990F8A95EAF7892F0E946B10D2CF9BE581
:1011D000980F933020F490E080E00C94BE2798E5BF
:1011E000980F973120F490E080E00C94D427803F52
:1011F00020F00E9466170C94DF1708951F93CF9379
:10120000DF93182FEB010E941608209731F4812FED
:10121000DF91CF911F910C94A8088FE99FE001976F
:10122000F1F700C000002197F0CF70E060E0893353
:1012300011F460E570E00C94FE08882321F00E9410
:1012400065100C94B5100895882321F00E946B104E
:101250000C94B5100895BF92CF92DF92EF92FF9257
:101260000F931F93CF93DF936C01D62FC72FFC01F1
:101270001281058102950F700E943A10E82E882392
:10128000A1F0E12E112389F08C2F807F803429F08A
:1012900080E28D0FE12C883040F082E00E94061140
:1012A0000E943A1091E0E82EE926BC2EB2949FE00D
:1012B000B922EB2DF0E0EF58FB4C0C94B3330C2F1C
:1012C0000F70C07F11F00295007F1123A9F0002359
:1012D00059F080E28D0F883010F0D11109C0802FB5
:1012E0000E9465100E94B5108D2F0E94160814C030
:1012F000802F0E947810F6CF8D2F0E94A80800231F
:1013000059F080E28D0F883010F0D1112CC0802F61
:101310000E946B100E94B5102B2D2850330B2430E7
:10132000310520F40E9487270E94CB07EE2009F4A4
:1013300079C10E94361080FD75C1F60112820E94AB
:1013400030100E94050CC6010E94330B0E94301021
:10135000DF91CF911F910F91FF90EF90DF90CF9091
:10136000BF900C94100C802F0E947E10D3CFFC2FC6
:10137000FF70FF2EC07FC03219F0F29480EFF82288
:10138000DD2369F0D13049F1112391F1002351F1AE
:10139000F601858180FFA8CF8F70858323C011233C
:1013A00081F0011106C00E9498108F290E941D092A
:1013B000B3CF0130C1F70E9498108F290E949E1070
:1013C000ABCF011106C00E94AB108F2D0E942409E3
:1013D000A3CF013009F4A0CFF6CF112329F00630B6
:1013E00008F09ACF8F2DE2CF053008F095CFEDCFE2
:1013F000002359F3D93349F4FFEF27EE33E0F150DE
:1014000020403040E1F700C000008D2F0E94A80866
:1014100083CF8C2F86958695837069F0813009F093
:101420007BCF8D2F9C2F9370111102C090E080E034
:101430000E94D42771CF8D2F9C2F9370111102C061
:1014400090E080E00E94BE2767CF8D2F112329F006
:101450000E940C170E94DF175FCF0E946617FACF19
:101460008C2F837079F5111157CF4D2F42954695EA
:101470004770440F440F8D2F8F70042E01C0880FCA
:101480000A94EAF72D2F2071D4FF07C02FE030E037
:1014900001C0220F4A95EAF72095C695C695C370FC
:1014A000822BC23049F058F4C13019F00E94D90B98
:1014B00033CF0E94D40B30CF0E94DE0B2DCF0E9481
:1014C000D20B2ACF8695112311F08C2F817088239F
:1014D00009F422CF4D2F429546954770440F440F93
:1014E0008D2F8F70042E01C0880F0A94EAF72D2FDC
:1014F0002071D4FF07C02FE030E001C0220F4A95D1
:10150000EAF72095C695C695C370822BC23049F084
:1015100058F4C13019F00E942C0CFECE0E94270C0A
:10152000FBCE0E94310CF8CE0E94E50BF5CECF70B9
:10153000112329F08C2F0E94050C8D2F37CF8D2F72
:101540000E9424098C2F0E94100CE6CED23F89F114
:1015500060F4D03FC9F0D13F29F1112309F442C012
:101560000111C2CE8C2F8F7121C0D33F39F1D43FEE
:10157000A1F7112369F1CF718C2F0E94050C63E054
:101580008C2F0E94EB10C8CE112341F0053008F0DB
:10159000C3CE8C2F8F710E941C0CBECE063008F07B
:1015A000BBCEF7CF8C2F8F71112369F20E94050CEF
:1015B000B3CE8C2F8F711123C9F3C5CF112329F01E
:1015C0008C2F8F710E94FD0BA7CE0E94EB0BA4CE37
:1015D00081E00E940611023008F49ECE82E00E9453
:1015E00006119ACE002359F0D93309F00ECF8FEFB0
:1015F00097EEE3E081509040E040E1F704CF8C2F7C
:101600008F71A1CF4C2F4F706D2FC6010E94D71242
:101610000E94E60C81CE4C2F4F706D2FC6010E94A8
:10162000DA127ACEDF91CF911F910F91FF90EF9058
:10163000DF90CF90BF9008950F931F93CF93DF93C8
:10164000EC01688179818A810E94C20C8C010E9420
:10165000360C0E94D10BB801CE01DF91CF911F91C2
:101660000F910C942B09CF93DF93EC018B819C811C
:10167000892B29F08881998189238F3F59F4DF9143
:10168000CF910895CE010E941C0BCE01DF91CF9126
:101690000C94D305CE010E941E068111F3CF0E9447
:1016A0003A10882361F38A81882349F382E0DF912D
:1016B000CF910C940611882321F00E9478100C948D
:1016C000B5100895882321F00E947E100C94B51067
:1016D000089590E080E00E94BE2790E080E00E94A4
:1016E000D4270E9485100E9495100E94B5100E9478
:1016F00006190C94DF170E942A100C94690B0E94A3
:1017000075100C947B0BE92FE295EF70E250EE30F0
:1017100070F4F0E0EF57FB4C0C94B333803F19F0BA
:1017200020F4883E20F481E00895843FE1F380E0D6
:101730000895883EC0F3813FD1F7F5CF93FB88270A
:1017400080F90895FC01808191810E94B80C0C946D
:10175000830BCF93DF9300D000D00F92CDB7DEB7CD
:101760000F900F900F900F900F90DF91CF910895F1
:10177000CF93DF9300D000D000D0CDB7DEB7269650
:101780000FB6F894DEBF0FBECDBFDF91CF910895A5
:1017900008950C94C80B0E94C90B8093E3010C942C
:1017A000690B08950C94CB0B9091E301892B0C9459
:1017B000CB0B9091E30189230C94CB0B9091E30127
:1017C00089270C94CB0B0C9406050E94E30B8093A5
:1017D000E2010C94690B80E00C94E50B811105C0CB
:1017E00081E0662349F080E0089590E002C095957D
:1017F00087956A95E2F78170089591E001C0990F8D
:101800008A95EAF7892F0C94E50B21E030E001C0BE
:10181000220F8A95EAF78091E201822B0C94E50B66
:1018200021E030E001C0220F8A95EAF720958091EF
:10183000E20182230C94E50B21E030E001C0220F8D
:101840008A95EAF78091E20182270C94E50B90914A
:10185000E201892B0C94E50B9091E20189230C9411
:10186000E50B9091E20189270C94E50B08952EE099
:10187000929F800D1124982F977041E001C0440F72
:101880009A95EAF786958695869593E0899FF0016B
:101890001124E953FE4F90E080E070E05191DF01A8
:1018A00011979B01082E02C0369527950A94E2F7FE
:1018B000217021952527242325272C9301968330F9
:1018C000910561F708952EE0929F800D1124982FC5
:1018D000977086958695869523E0829FF001112466
:1018E000E953FE4F50E040E080E0219130E0092EC6
:1018F00002C0369527950A94E2F721703327042E0B
:1019000001C0220F0A94EAF7822B4F5F5F4F4330EA
:10191000510559F70895CF92DF92FF920F931F93CD
:10192000CF93DF936C010091E2018091E301082BDA
:10193000C7E0D0E010E0FC2EC8010C2E02C0959547
:1019400087950A94E2F780FD0CC02197A0F7F12C4F
:101950008F2DDF91CF911F910F91FF90DF90CF904E
:101960000895B6018C2F0E94F613019771F3F0CF02
:10197000CF93DF93EC010E948B0CBE01DF91CF91DE
:101980000C94F6131F93CF93DF93EB019091C60154
:10199000992331F0CB01DF91CF911F910C94B80CBA
:1019A000882379F0CB010E948B0C182F682FCE0171
:1019B0000E94370CBE01812FDF91CF911F910C94B3
:1019C000F613CB010E94630C182FF4CFEF92FF9215
:1019D0000F931F93CF93DF938C01892B81F0F12C10
:1019E000EE24E394E8012196F8018491843770F4A1
:1019F000843008F05FC08130B1F08230A1F1DF9116
:101A0000CF911F910F91FF90EF900895853709F4C2
:101A10004CC008F43DC09CE7980F903780F78F7753
:101A20000E94A80849C00E5F1F4FFE01849190E2FA
:101A3000980F983060F48770FE2D01C0FF0F8A95D3
:101A4000EAF78F2F0E9488100E94B51002C00E94F2
:101A500016088F2D815030F2EFE9FFE03197F1F752
:101A600000C00000F7CF0E5F1F4FFE01849190E28F
:101A7000980F983050F48770FE2D01C0FF0F8A95A3
:101A8000EAF78F2F0E948E10DFCF0E94A808E1CFC7
:101A90000E5F1F4FFE01C491C150D8F28FE99FE045
:101AA0000197F1F700C00000F7CF0E5F1F4FFE0156
:101AB000F490CFCF0E9416088E01CBCF1F93CF9307
:101AC000DF93C091E40116E08091E5018C1304C01E
:101AD000DF91CF911F910895D0E01C9FF0011D9FD1
:101AE000F00D1124EA51FE4F4081518162817381D2
:101AF000848195810E94B80B2196C770E5CF4091F3
:101B0000160250911702609118027091190280918B
:101B10001A0290911B020C94B80B1F93CF93DF9382
:101B200080911B02807FA9F480911802882389F09C
:101B30008091E401C091E501609116027091170255
:101B4000A0911902B0911A02D62FD72316E0C8131C
:101B500004C0DF91CF911F91089590E0109711F08C
:101B6000DF3F19F401968770F2CF189F9001199FFB
:101B7000300D1124F901EA51FE4F41814713F2CF94
:101B800040814613EFCF42814111ECCF4381548114
:101B90004A1B5B0B483C510528F780911B028F7054
:101BA000806180931B02F901E551FE4F80818F70A7
:101BB0008061808386E192E00E94330BDF91CF91B8
:101BC0001F910C945E0DAF92BF92CF92DF92EF9275
:101BD000FF920F931F93CF93DF93CDB7DEB761973B
:101BE0000FB6F894DEBF0FBECDBF8C0185E0F801C3
:101BF000DE011D9601900D928A95E1F7F801E280D1
:101C000086E1C82E82E0D82E6091190270911A02E6
:101C10006115710509F45AC19091160220911702BD
:101C2000892F82238F3F09F451C140815181A380C4
:101C3000B480F0901802F501E61BF70BFF2009F4C1
:101C4000F6C080911B02382F307FE83CF10508F088
:101C5000AFC0311179C0FE2C251323C0941321C0CD
:101C6000E1101FC08F70806180931B020E947F0D66
:101C7000C6010E94330B80911B02F80185838F2DD2
:101C800061960FB6F894DEBF0FBECDBFDF91CF9146
:101C90001F910F91FF90EF90DF90CF90BF90AF908A
:101CA0000895AB2829F0842F85238F3F09F027C1A1
:101CB00080E0F82FF170DF2E80FF3CC08091E401BE
:101CC0002091E50136E0821315C04D875E878D8532
:101CD0009E850E94B80C292F22952F702230F0F09B
:101CE000243018F59F70F1F0F8019581907FD1F4C0
:101CF000D12C1EC090E0389FF001399FF00D1124C7
:101D0000EA51FE4F6181651306C06081641303C010
:101D10006281E6120FC001968770D5CF9F7011F0D7
:101D2000882331F3805E883018F3C8010E94330B9A
:101D3000FD2CA5CFEE2009F4A2CF80911B0281607B
:101D400080931B02F12C9BCF251306C0941304C073
:101D5000F801EE2009F487C0C8010E94A20B882375
:101D600019F1EE2009F180911B02803270F0209170
:101D700016023091170238872F831986BB86AA86F0
:101D80008C87CE0107960E94330B86E0F801A6E10E
:101D9000B2E001900D928A95E1F70E948D0D0E94AC
:101DA0007F0DFF24F3946BCFC8010E94330BF9CF52
:101DB000311113C07A2DB98AA88A6E2D89890E94A3
:101DC000A90B86E192E00E94330B86E0F6011192A6
:101DD0008A95E9F70E947F0DB5CF25130FC09413A4
:101DE0000DC0E1100BC0F8018583C8010E94330BC0
:101DF00086E0F60111928A95E9F741CFC8010E9469
:101E0000A20B882389F2EE2079F280911B028032A6
:101E100008F4BBCF20911602309117023A83298330
:101E20001B82BD82AC828E83CE010196ACCFE83C92
:101E3000F10508F03EC0FE2CEE2009F4B5CF2513C5
:101E40002AC0941328C080911B0280FD1BC0982FCC
:101E5000907FC1F0F8018583903F31F0982F907FFB
:101E6000905F8F70892B8583C8010E94330B86E0B9
:101E7000F801A6E1B2E001900D928A95E1F70E9487
:101E80007F0DFDCE86E0F801A6E1B2E001900D9253
:101E90008A95E1F7F4CEC8010E94A20B811175CF9B
:101EA00080911B02816080931B02C8010E94330B4A
:101EB000E6CE7A2DB98AA88A6E2D89890E94A90B4F
:101EC00086E0F60111928A95E9F7D9CFEE2009F460
:101ED0006BCFC8010E94A20BF82E882309F464CFAF
:101EE00086E0F801A6E1B2E001900D928A95E1F753
:101EF00086E192E00E9411080E948D0DC0CF81E022
:101F00008E25D7CE1F93CF93DF93CDB7DEB72C9717
:101F10000FB6F894DEBF0FBECDBF4F8358876987D9
:101F20007A878B879C87CE0107960E94E30D8823D2
:101F300069F08A859B85892B39F04F815885842FDC
:101F400085238F3F09F071C016E05FC086E0FE0177
:101F50003796DE01119601900D928A95E1F78A85F8
:101F60009B85892B89F38F81988589238F3F61F326
:101F70002091E50130E0C9010196877099274091D1
:101F8000E4014817190671F40E947F0B1092E501D5
:101F90001092E40186E0E6E1F2E0DF011D928A950D
:101FA000E9F7D2CF96E0929FD001939FB00D112414
:101FB000AA51BE4FFE01319601900D929A95E1F71C
:101FC0008093E5010E945E0DBFCF819FC001112467
:101FD0008A519E4F0E94E30D8823E9F0E091E401CD
:101FE0001E9FF0011124EA51FE4F40815181628110
:101FF0007381848195810E94B80B8091E40190E007
:102000000196877099278093E4018091E401909173
:10201000E5018913DACF2C960FB6F894DEBF0FBE18
:10202000CDBFDF91CF911F91089569857A858B850A
:102030009C850E94B80B88CF682F809113019091E6
:1020400014010C947E28682F809113019091140143
:102050000C94892880911301909114010C94942878
:1020600080911C02859585958595089580911C0227
:102070008770089590911C02977081E009F480E0C8
:1020800008959091B70292FB222720F9281751F06A
:1020900080FB92F99093B7028091B6029091B702BB
:1020A0000C94491108958091B70282FB882780F92A
:1020B00091E089270C94411081E00C94411080E05C
:1020C0000C94411080914002089590914002892B18
:1020D00080934002089580959091400298239093B8
:1020E000400208958093400208951092400208959E
:1020F00090913F02892B80933F02089580959091A3
:102100003F02982390933F02089510923F02089552
:1021100090913E02892B80933E0208958095909184
:102120003E02982390933E02089510923E02089535
:1021300080911D02089508950C949B109091B70210
:1021400092FD08C090911D02981721F080931D0206
:102150000C949C10089580911D02882329F0109200
:102160001D0280E00C949C100895E0911301F09101
:102170001401809140028083E0911301F0911401D9
:10218000808190913F02892B8083E0911301F0912F
:102190001401808190913E02892B808390911D02D1
:1021A000992381F0E0911301F09114018081892B32
:1021B000808380911301909114010E94EA2781117C
:1021C0000E94AB1080911301909114010C949627FA
:1021D00008950C94E8109091B70292FD10C098E019
:1021E000899F90011124622B60931C020E94050CB0
:1021F00080911C028595859585950C94E9100C9429
:10220000050C10921C0280E00C94E91090911C02C5
:102210008095892380931C02282F277039F4282F5A
:10222000082E000C330B9217130621F49091B7027D
:1022300092FF07C08595859585950E94100C0C949A
:10224000011108956FEF7FEF90E080E00C94593416
:1022500090E080E00E943534893E9E4F11F40C944A
:10226000711F80E0089582E090E00C94273483E0B1
:1022700090E00C942734CF9384E090E00E942734C0
:10228000C82F82E290E00E942734982F8C2FCF91A4
:102290000895CF93C92F682F84E090E00E943B34CB
:1022A0006C2F82E290E0CF910C943B34AB01BC01E7
:1022B0008FE090E00C944D34AB01BC0183E190E0E1
:1022C0000C944D3460E070E0CB010C945C1160E044
:1022D00070E0CB010E9456110C94621169EE7EEF02
:1022E00090E080E00E94593460E082E090E00E943B
:1022F0003B3460E083E090E00E943B341092E301C5
:1023000060E084E090E00E943B3460E082E290E094
:102310000E943B3460E085E090E00E943B3460E046
:1023200086E090E00E943B346FEF87E090E00E94EF
:102330003B3440E050E0BA0188E090E00E944D3428
:1023400060E08DE090E00E943B3440E050E0BA0154
:1023500088E190E00E944D3460E087E190E00E94C7
:102360003B3440E050E0BA018CE190E00E944D34F3
:1023700070E060E080E290E00E94593440E050E07C
:10238000BA0188E190E00E944D3480E00E948A1FEB
:102390000E94B01F0C9467110C946E11682F8EE090
:1023A00090E00C943B340E94362960935002709365
:1023B0005102809352029093530260934C027093A7
:1023C0004D0280934E0290934F02089585B7806826
:1023D00085BF85B7806885BF0895089508950C94DA
:1023E000ED110C94FF040E94E61184ED94E10E942B
:1023F00099290E94EE110C94EF1181E008950C943C
:10240000FD11089508950E9401120C9402120E9479
:1024100021290E94BF1F0E94D1150E94D41CE6EB07
:10242000F2E08081806880838091B6029091B7024B
:102430000E9449110C94F1118F929F92AF92BF921A
:10244000CF92DF92EF92FF920F931F93CF93DF9380
:10245000CDB7DEB72A970FB6F894DEBF0FBECDBF5B
:102460000E94F91581110E94D31152E4852E52E089
:10247000952E10E000E0A02E802F0E940D156C011B
:10248000F401E190F1904F01E816F90609F465C0F6
:102490008091540281FD0E941615C7018C259D254F
:1024A000B12CEE24E394F12C9C012E213F21232B0F
:1024B00009F44DC00E94FF118823A9F0BE82AF82AB
:1024C000CE20DF2081E0CD2809F480E088870E94BB
:1024D0002A298160782F9A8789874E815F81688554
:1024E0008A850E94D307000F111FF801EE5BFD4F94
:1024F00080819181E826F926F182E0820E947B1D8D
:102500000E94FA170E94C91E81110E94E51E0E94B6
:1025100070270E948727909141028917A9F10E9494
:102520008727809341022A960FB6F894DEBF0FBE2C
:10253000CDBFDF91CF911F910F91FF90EF90DF9072
:10254000CF90BF90AF909F908F900C94CB07B39497
:10255000EE0CFF1CFEE0BF12A7CF0F5F1F4F053030
:10256000110509F088CF8FEF89838A831B820E942F
:102570002A298160782F9D838C8349815A816B81C0
:102580008D810E94D307BACF2A960FB6F894DEBF8A
:102590000FBECDBFDF91CF911F910F91FF90EF90B4
:1025A000DF90CF90BF90AF909F908F90089590E074
:1025B00080E008950895FC01EE0FFF1FEA5DFC4FD7
:1025C000859194910895CF93DF930E94FA13EC01C3
:1025D000811520E5920708F042C0811530E4930789
:1025E00008F0BDC0883E910528F5803E910508F0B1
:1025F0009DC0883A910588F4853A910508F08FC00E
:102600008130910509F492C0009709F48FC00497B6
:1026100008F08CC0D0E0C0E089C08F3B910508F481
:1026200089C0805C9109C03CD105A0F30E94DB12F7
:10263000EC017CC08115904250F4C11581E0D807AF
:1026400008F074C0C03FD10528F3D0656FC0C11534
:1026500090E3D90708F079C0CE019F70E7CF8115CC
:1026600025E5920758F5811534E5930708F0A6C0D3
:10267000811542E5940750F4C11581E5D80708F4A7
:1026800071C0DC2FCC27C16FD06A50C0982F9695AF
:1026900096959E0123703327C115D34508F07FC05E
:1026A000C1E0D0E002C0CC0FDD1F2A95E2F720E2A6
:1026B000929FC0011124C82BD92B6FC0C11589E589
:1026C000D807A8F4C11598E5D90708F07CC0C11552
:1026D00026E5D20708F09ECF8C2F0E949114C82FB8
:1026E000D0E0DC2FCC27CC27DF71D0621FC0C11512
:1026F0003AE5D30708F46CC0CE019056811590429C
:1027000008F088CF8D2F8F710E94911490E0982F40
:10271000882788279F719C012C2BE901E6CFC55A99
:10272000D0E0C357DE4FC881D0E0D064CE01DF9146
:10273000CF910895C85AD0E0CC0FDD1FC15ADE4FAB
:102740000990D881C02DD464F1CFCE019927D3FF51
:1027500003C0EC01D86CEACFEC01D06CE7CFDF709E
:10276000D06AE4CFCE01E4E096958795EA95E1F74B
:1027700083702C2F26952695237090E2299F900137
:102780001124382B8C2F8370C1E0D0E002C0CC0F15
:10279000DD1F8A95E2F7C22BD32BDC68C7CFC1E0DF
:1027A000D0E002C0CC0FDD1F2A95E2F730E2939F04
:1027B000C0011124C82BD92BDA68B8CFD82FCC2769
:1027C000C46FD06AB3CFDC2FCC27C06FD06AAECF36
:1027D0008C2F8F700E94911434E0D695C7953A954E
:1027E000E1F7CF709C2FEC01D069A0CF0E94E121CE
:1027F0000C94E31282389105B1F1B0F48133910564
:1028000009F475C048F48932910509F469C08A3227
:10281000910509F473C008958533910509F459C0F1
:102820008933910501F10895833E9105A9F138F4AA
:10283000803E9105F9F0823E910549F10895863E6A
:102840009105A9F1873E9105C9F1843E910519F5DD
:102850002091B70221FF1FC08091B60284FD14C0F1
:1028600087EE90E008952091B6022370A1F080EEEB
:1028700090E008952091B60220FD47C03091B70244
:1028800030FF09C024FF44C090E080E004C02091E4
:10289000B60222FDF7CF08952091B60222FD3BC07B
:1028A0003091B70230FDE3CF24FFF5CFEDCF20917B
:1028B000B60223FFF0CF24FDE7CFD2CF2091B6029E
:1028C00023FD2CC03091B70231FFEECF84EE90E0B3
:1028D00008952091B60225FFDECF89E290E00895A9
:1028E0002091B60225FFD7CF85E390E0089520918F
:1028F000B60226FFD0CF8AE290E008952091B6027A
:1029000026FFC9CF81E390E0089589E390E0089520
:1029100083EE90E0089582EE90E0089586EE90E0D8
:1029200008959091B60292FF06C0282F2871283092
:10293000F9F4877F846093FF06C0282F287128311F
:10294000F1F4877E84612091B70220FF06C0382F02
:1029500038713830D9F4877F816021FF06C0282F75
:1029600028712831D1F4877E816194FD877E089596
:10297000282F24712430F9F68B7F8860DCCF282F34
:102980002471243101F78B7E8861DDCF382F3171BE
:10299000313019F78E7F8860E0CF282F21712131E7
:1029A00021F78E7E8861E1CF80E008950C9422119A
:1029B0000E94F9158FE39CE90197F1F700C0000030
:1029C0000E94F91580E00E940D1580FF04C00E944E
:1029D000D6140C94752908950C94D8140E942811CB
:1029E000811102C00E94CC110E94331180935402C5
:1029F0000E943B119093B7028093B6020E94EC14A0
:102A00000E9437110E94D20B8091E2010C94E30BDB
:102A100008950C9408150C942C04E82FF0E0EE0FA8
:102A2000FF1FEE53FD4F808191810895089580EA44
:102A30008A95F1F7089500C008950C941715F8943D
:102A4000E82FE295EF70F0E031A1282F2F7081E0A0
:102A500090E001C0880F2A95EAF7982F909593236C
:102A600091A392A1892B82A378940895CF93DF93A9
:102A7000C0E9D1E089918F3F11F00E941F1581E0DC
:102A8000CE39D807B9F7CEE9D1E089918F3F11F05F
:102A90000E941F1581E0C33AD807B9F7DF91CF91A3
:102AA0000895AF92BF92DF92EF92FF920F931F9320
:102AB000CF93DF93D82EE92EF62EC62FD0E0AE01AD
:102AC00040575E4F5A01EA0188818F3F09F45FC089
:102AD000F894E82FE295EF70F0E021A18F7001E00B
:102AE00010E0A80102C0440F551F8A95E2F7CA0101
:102AF000922F982B91A392A18095892382A37894F9
:102B00000E941B150F2C02C0000F111F0A94E2F740
:102B1000A80140955095AEE9B1E0ED2DFE2DE12CD8
:102B20006D91808191816F3F69F1262F22952F70E1
:102B300030E0E90128A130E06F7002C0359527959B
:102B40006A95E2F720FD1EC0802B912B9183808334
:102B5000EE24E3943296D1E0A33ABD0709F7F501DC
:102B600080818F3F11F00E941F156E2D8F2DDF91F8
:102B7000CF911F910F91FF90EF90DF90BF90AF909A
:102B80000C941D158423952391838083E3CFDF91DB
:102B9000CF911F910F91FF90EF90DF90BF90AF907A
:102BA00008950E943615A8EBB2E011961C921E9271
:102BB000E2ECF2E01182108213961C921E921297A0
:102BC0001382128215961C921E92149715821482FB
:102BD00017961C921E9216971782168219961C92AF
:102BE0001E9218971186108685E00E9444160C9458
:102BF0000406FF920F931F93CF93DF93CDB7DEB7F9
:102C00002A970FB6F894DEBF0FBECDBF8E010F5FBF
:102C10001F4F8AE0F80111928A95E9F7F12C6F2D88
:102C2000C8010E945115F394FEE0FF12F8CF4AE06C
:102C300050E0B80188EB92E00E941A34FF24F3942C
:102C4000009709F4F12C892B41F08AE0F801A8EBF8
:102C5000B2E001900D928A95E1F72F2D45E062ECEC
:102C600072E088EB92E00E9445160E940C068F2DC0
:102C70002A960FB6F894DEBF0FBECDBFDF91CF917D
:102C80001F910F91FF9008950895FF920F931F9346
:102C9000CF93DF93F82E092F162FD72FC42F22237F
:102CA00049F081E0809357020E942A2990935602AE
:102CB00080935502809157028823A1F0809155029C
:102CC000909156020E944229059760F0EF2DF02F57
:102CD000A12FBD2F90E080E0D0E08C179D0744F03D
:102CE00010925702DF91CF911F910F91FF9008959D
:102CF000219131912D933D930196EFCF0E94A6280B
:102D00000E946C2B0E94852B0E94972B0E9403121D
:102D1000FBCF80915E0280FF12C060911A0185E0B6
:102D2000689FB00111247595679575956795603812
:102D30007105A8F561157105A1F1862F089581FF30
:102D400009C060911A0185E0689FB0011124759552
:102D50006795EDCF60911A0182FD0AC080915D02F6
:102D60008823D1F09091190160911A01891728F0F8
:102D700085E0689FB0011124DACF869FB00111244D
:102D800085E0869F9001879F300D1124692F70E0A8
:102D9000C9010E948033CBCF65E070E0CECF8FE7D2
:102DA000089581E0089580915E0280FF0CC06091DB
:102DB000160170E0759567957595679561157105B4
:102DC00049F1862F089581FF06C06091160170E0D9
:102DD00075956795F3CF6091160182FD0BC09091B8
:102DE0005C029923A1F0609115018091160196175C
:102DF00038F0682F70E06038710500F38FE70895B0
:102E0000899FC001112470E00E948033F4CF61E0FB
:102E100070E0D7CF81E00895803F31F40E94891699
:102E20008195809362020895813F19F40E9489166A
:102E3000F8CF823F31F40E94891681958093610218
:102E40000895833F19F40E948916F8CF893F29F429
:102E50000E94D3168093630208958A3F21F40E9452
:102E6000D3168195F7CF8B3F31F40E94D31681950D
:102E70008093640208958C3F19F40E94D316F8CF12
:102E80009CE0980F953070F4845F990B21E030E05E
:102E900001C0220F8A95EAF780916002822B80930D
:102EA000600208958D3F31F480915E0281608093CD
:102EB0005E0208958E3F21F480915E028260F7CF1A
:102EC0008F3FB9F780915E028460F1CF409161023B
:102ED000803F59F48091620287FF0DC01092620218
:102EE00041110BC010925D0208C0813F81F48091B6
:102EF000620218169CF3442381F080916302909142
:102F00006402892B09F05AC010925C020895823F36
:102F100049F447FFF0CF1092610280916202811163
:102F2000ECCFE0CF833F19F41416ACF3E4CF9091CB
:102F30006302893F29F41916F4F610926302DBCF7D
:102F40008A3F19F497FFD7CFF8CF909164028B3F57
:102F500029F497FFD0CF10926402CDCF8C3F19F4A3
:102F60001916CCF3C8CF9CE0980F953090F4845F8D
:102F7000990B21E030E0B90102C0660F771F8A95F6
:102F8000E2F7CB01809590916002892380936002E3
:102F9000B2CF8D3F31F480915E028E7F80935E02CE
:102FA000AACF8E3F21F480915E028D7FF7CF8F3FB5
:102FB00009F0A1CF80915E028B7FF0CF08950E942F
:102FC0002A299C019091610280916202982B21F044
:102FD00030935B0220935A029091630280916402C5
:102FE000982B21F030935902209358028FE592E0FC
:102FF0000C94B027EF92FF920F931F93CF93DF9320
:1030000000D000D000D0CDB7DEB786E0EFE5F2E02B
:10301000DE01119601900D928A95E1F7E090610230
:10302000F0906202009163021091640210926102BA
:103030001092620210926302109264028E2D8F2908
:1030400091F080915A0290915B020E944229AC015A
:1030500090915D02992309F43FC080911B01841770
:10306000150608F447C0802F812B91F080915802FB
:10307000909159020E944229AC0190915C029923DF
:1030800009F477C0809117018417150608F47FC0F2
:103090008091610290916202892B90916302892B49
:1030A00090916402892B11F00E94DF1786E0FE01E7
:1030B0003196AFE5B2E001900D928A95E1F7269640
:1030C0000FB6F894DEBF0FBECDBFDF91CF911F9139
:1030D0000F91FF90EF90089520911C018AE0289FA6
:1030E000900111242417350708F0BDCF9F5F9093FE
:1030F0005D0202C09F3FD1F7EE2059F00E94891671
:103100009FEF1E140CF491E0899F802D1124809371
:103110006102FF2059F00E9489169FEF1F140CF4E2
:1031200091E0899F802D1124809362023091610289
:10313000332309F498CF20916202222309F493CF1C
:1031400045EB3403C0011124992359F09093610297
:1031500045EB240390011124332339F030936202AC
:1031600082CF81E080936102F3CF81E0809362029D
:103170007ACF209118018AE0289F9001112424170A
:10318000350708F085CF9F5F90935C0202C09F3F98
:10319000D1F7002359F00E94D3169FEF10160CF4BC
:1031A00091E0899F802D112480936302112359F0AF
:1031B0000E94D3169FEF11160CF491E0899F802D89
:1031C00011248093640230916302332309F460CFA9
:1031D00020916402222309F45BCF45EB3403C00144
:1031E0001124992359F09093630245EB2403900135
:1031F0001124332339F0309364024ACF81E0809365
:103200006302F3CF81E08093640242CF86E0EFE572
:10321000F2E0DF011D928A95E9F710925D021092AB
:103220005C0210925E020895EF92FF920F931F933B
:10323000CF93DF93EB01E82FD11110C0442321F08D
:10324000F0E0E35DFB4FE4916E2F7E2F8E2FDF9138
:10325000CF911F910F91FF90EF9008950D2F10E0E7
:10326000282F30E0442329F0235D3B4FF9012491BE
:1032700030E0F6E0CF9FC0011124EFEFF0E0BF0196
:103280000E946C33AB018C2F90E0880F991FA5E54D
:10329000A49FB001A59F700D1124861B970B982F3A
:1032A000990F980FBF01601B710B629FD001639F44
:1032B000B00D729FB00D11248B2F9D9FB001112472
:1032C000672F7727EF01C61BD70BBE01629FE00176
:1032D000639FD00D729FD00D11247F01E91AF10870
:1032E000E09EB001E19E700DF09E700D1124672FDD
:1032F0007727E61BF70BE29F8001E39F100DF29FFB
:10330000100D1124E12F722F4230510599F048F42D
:103310004115510569F04130510581F0EB2F8D2F9A
:1033200007C04430510569F080F046305105B1F7CF
:103330006E2F8DCFE22F7B2F812FFACFE22F7D2FA3
:10334000F7CFEB2F822F712FF3CF7B2F822FED2F13
:10335000EFCF41E00C94141908950C94A919CF9360
:10336000DF93762FE901682F842F0E94AD197983AE
:1033700068838A83DF91CF9108958091CC02982F42
:103380009E7F29F4817082608093CC0208958831F9
:10339000E8F381708661F8CF88E090E00C942F34D8
:1033A000CF92DF92EF92FF926B017C010E94BD19D8
:1033B000B701A60188E090E0FF90EF90DF90CF90FA
:1033C0000C944D346091CC027091CD028091CE026C
:1033D0009091CF020C94D019ECECF2E083E0808362
:1033E00011828FEF82838383148260817181828155
:1033F00093810C94D0198091CC0280FF02C08695F5
:10340000089580E008959091D002933018F49F5F62
:103410009093D002882351F06091CC027091CD023C
:103420008091CE029091CF020C94D019089581E042
:103430000C94031A9091D002992319F09150909313
:10344000D002882351F06091CC027091CD0280911E
:10345000CE029091CF020C94D019089581E00C9483
:103460001A1A8091D00208958093D002662351F0F9
:103470006091CC027091CD028091CE029091CF02EA
:103480000C94D019089560E00C94341A8091CD0208
:1034900008958091CE0208958091CF02089521E091
:1034A00030E001C0220F8A95EAF7909176029223CC
:1034B00081E009F480E0089570E00C949D1E6F9205
:1034C0007F928F929F92AF92BF92CF92DF92EF92B4
:1034D000FF920F931F93CF93DF9300D000D00F92F2
:1034E000CDB7DEB770901E018091CC0280FF2BC05B
:1034F000C0906B02D0906C02F12CE12C43E0642E62
:10350000C114D10409F042C080911D0133E0839FB2
:10351000C0011124672D8F529D4F0E945C1A0F909D
:103520000F900F900F900F90DF91CF911F910F91FF
:10353000FF90EF90DF90CF90BF90AF909F908F90D3
:103540007F906F90089580911F019091200123E05A
:10355000829FF0011124EF52FD4F891748F6118226
:10356000108212828F5F3396F8CF98014D816C8163
:103570008B810E94AF190D5F1F4F39C08FEFE81A82
:10358000F80A28E0E216F10409F4BECF8E2D0E945D
:103590004F1A882399F3F701EE0FFF1FEC0DFD1D65
:1035A000A590B490A114B10409F4AECF45E050E069
:1035B000B501CE0101960E94043409810F3FF1F25A
:1035C0008A81800F9927991F8131910514F080E13C
:1035D00090E04C01880C991C880D991D9C012F527C
:1035E0003D4F4901069D800111240F521D4F0815C2
:1035F000190508F4BACF35E0A30EB11CD7CF9091CE
:10360000CC0290FF14C090911F012091200133E063
:10361000939FF0011124EF52FD4F921710F00C947C
:103620005F1A8183608342839F5F3396F6CF08954C
:10363000CF93DF9300D00F92CDB7DEB79091CC023D
:1036400090FF0AC09E012F5F3F4F0E94AF194B8130
:1036500069818A810E94FF1A0F900F900F90DF916D
:10366000CF910895CF93DF93EC01EC81F0E0E35D1F
:10367000FC4F4491ECECF2E0628181810E94181BC6
:103680008C818F5F8C83DF91CF910895EF92FF92B1
:103690000F931F93CF93DF9300D00F92CDB7DEB778
:1036A000082FF62E142FE22E8091CC0280FF28C026
:1036B000E82FE695F0E0ED55FE4F9081909374026F
:1036C0008E7F823039F59E012F5F3F4F802F0E9401
:1036D000AF194B8169818A810E94FF1A0093CD0244
:1036E000F092CE021093CF02EE2051F06091CC0206
:1036F0007091CD028091CE029091CF020E94D0199C
:103700000F900F900F90DF91CF911F910F91FF902D
:10371000EF900895923019F41091CF02DFCF9630D8
:10372000E9F60091CD02DACFECECF2E09181282F9E
:103730004381628188E0890F0C94461B81E00C94E0
:10374000941BECECF2E09181282F4381628188EF99
:10375000890F0C94461B81E00C94A11BECECF2E069
:10376000628121E1620F08F46FEF282F438181818C
:103770000C94461B81E00C94AE1BECECF2E06281F1
:1037800021E1621B08F460E0282F438181810C94C1
:10379000461B81E00C94BD1BECECF2E0438121E17F
:1037A000420F08F44FEF282F628181810C94461B51
:1037B00081E00C94CC1BECECF2E0438121E1421B54
:1037C00008F440E0282F628181810C94461B81E03F
:1037D0000C94DB1B20E00C94461BEF92FF921F938E
:1037E000CF93DF93EC0110E0EE24EA94F12C60918A
:1037F0002101161770F00E945F1A9A818C8190FF48
:1038000027C08F5F8C83DF91CF911F91FF90EF9046
:10381000089520911F01422F410F5527551FCA01BE
:103820009A01220F331F280F391F2F523D4F70E08E
:10383000C7010E948033962F8C814091CF02609106
:10384000CE02199F800D11240E94AF191F5FCFCFA8
:103850008150D8CFECECF2E080818E7F8083608154
:103860007181828193810E94D019109275022FEF8D
:1038700080E792E0215080409040E1F700C00000D6
:103880000C945F1AECECF2E080818E7F80831092C2
:1038900075022FEF80E792E0215080409040E1F7E1
:1038A00000C000000C945F1A6091CC02669570E035
:1038B00041E050E082E291E00E940D34892B19F43E
:1038C00081E0809375020E942A2990936E02809372
:1038D0006D0208959091CC0290FF35C091708111D6
:1038E00028C092609093CC02662351F06091CC0284
:1038F0007091CD028091CE029091CF020E94D0199A
:103900006091CC02669570E041E050E082E291E087
:103910000E940D34892BA1F01092750281E08093F2
:1039200070024091CF026091CE028091CD020C9442
:10393000EA1B8C3010F09661D5CF880F982BD2CF30
:103940000E94541CEBCF0895682F9091CC0296955D
:1039500081E0890F8C3008F081E00C946A1C81E0D2
:103960000C94A41C682F9091CC0296958FEF890F30
:1039700009F48BE00C946A1C81E00C94B21C61E0A9
:103980000C946A1CECECF2E0808181608083869567
:103990000C94BF1C8091CC0280FD0C942A1C0C94CA
:1039A000C21C60E00C946A1C8091730281112EC0CD
:1039B0000E942811811104C00E94CC110E94EC19B0
:1039C0000E94CC196093CC027093CD028093CE02FA
:1039D0009093CF026E7F61F40E94EC190E94CC1983
:1039E0006093CC027093CD028093CE029093CF026D
:1039F0000E94BD19109275028091CC0280FF03C015
:103A000086950E94D11C81E0809373020895ECECAE
:103A1000F2E080818160808386950C94D11C21E046
:103A200030E0A90102C0440F551F8A95E2F7CA0190
:103A300020917602662391F0822B8093760280910A
:103A40007502811105C08091CC0286950E94D11C1F
:103A50008091CC0280FD05C00C945F1A8095822372
:103A6000ECCF0895CF93DF9380916A028823E9F128
:103A70000E942A292091680230916902821B930BCF
:103A80008F3F9F4790F5D0E0C0E080916A0290E0C0
:103A90000C2E02C0959587950A94E2F780FF1BC013
:103AA000809167028823B9F080FF22C060E08C2FEC
:103AB0000E940F1D809167028150809367020E94CF
:103AC0002A292091650230916602820F931F9093FC
:103AD0006902809368022196C830D105B1F68091C1
:103AE0006702811102C010926A02DF91CF9108959E
:103AF00061E08C2FDDCF0F931F93CF93DF938091E5
:103B000075028823E9F180917402E091CC02E69578
:103B1000CE2FC81BC0936F02823009F03DC00E94B7
:103B2000C91E882399F164E681E00E94101FC82F06
:103B3000D0E002E31BE180917002882361F01092D3
:103B400070020E942A2990936E0280936D02109257
:103B50007202109271020E942A29E0916D02F09186
:103B60006E028E1B9F0B8F3F9F4750F4CE0FDF1FBF
:103B7000D0936E02C0936D028DE692E0F801099534
:103B8000DF91CF911F910F910C94321DEC2FF0E03B
:103B9000E75DFC4F8491CBCF8630A1F40E94C91E13
:103BA000882349F064E681E00E94101FC82FD0E00E
:103BB0000DEE1BE1C0CFEC2FE695F0E0EA5DFC4F87
:103BC0008491F4CFC0EDD7E00CEA19E1B4CFFA014B
:103BD000811101C0FB010994CF93DF93C82FD62F29
:103BE0000E94FB198C1740F00E94FB198D1720F4DE
:103BF000DF91CF910C94AF1C8C2FDF91CF910C945F
:103C0000BF1C0F931F93CF938C01FB01C281CC2368
:103C100009F491C00E94621082720A3CFCE51F0701
:103C200009F476C060F5053CECE51E0709F45CC0BC
:103C300080F4033C9CE5190709F44CC008F04FC020
:103C4000023C1C4509F443C08C2FCF911F910F916A
:103C50000895073C9CE5190709F450C008F449C0D1
:103C6000083CFCE51F0709F44EC047EE5BE168ED38
:103C70007BE1093C1C4541F70E94E71D22C00F3C37
:103C8000ECE51E07F1F0A0F40C3C9CE5190709F4E3
:103C900049C008F442C00D3CFCE51F0709F447C0C9
:103CA0000E3C1C4589F665E082E00E94EC1D09C0CF
:103CB000063D9CE5190738F46BE086E0013D1C45A4
:103CC000A0F3C0E0C1CF0D351D45D9F3BDCF0E9493
:103CD000CA1CF7CF4CEB5CE16FEA7CE1CDCF4FEA39
:103CE0005CE16CEB7CE1C8CF4BEA5BE16EE97BE128
:103CF000C3CF4EE95BE16BEA7BE1BECF49EC5BE110
:103D00006AEB7BE1B9CF4AEB5BE169EC7BE1B4CFD5
:103D100048ED5BE167EE7BE1AFCF4EE25AE167E150
:103D20007AE1AACF47E15AE16EE27AE1A5CF81E0DC
:103D30000E94BF1CC6CFC1E087CF549A4BB14F7EC3
:103D40005BB15061EFB7F8949B01220F331F260F30
:103D5000371F280F391F2817390741F4EFBF8FE5A8
:103D600094E00197F1F700C000000895DC016D9127
:103D7000CD0178E05BB9000000C067FF4BB9660F6A
:103D8000000000C000C000C04BB900C07A9591F798
:103D9000E2CF87E190E00E94273491E0813009F082
:103DA00090E0892F08950E94C91E60E0811101C032
:103DB00061E087E190E00C943B3480917902883C8B
:103DC00018F48E5F80937902089580917702909124
:103DD00078020E944229853F914030F48091770219
:103DE00090917802892BD9F480917902882319F077
:103DF00081508093790280917902853618F0815044
:103E00008093790280917902873918F082508093EB
:103E100079020E942A29909378028093770208956C
:103E20007F928F929F92AF92BF92CF92DF92EF924A
:103E3000FF920F931F93CF93DF93782E082F10E0FC
:103E4000C62FD0E0BE010D2E000C880B990B0E94EE
:103E50004A326B017C016091790270E090E080E071
:103E60000E94483220E030E048E453E40E94A73149
:103E70004B015C01BE01601B710B072E000C880B0F
:103E8000990B0E944A329B01AC01C501B4010E940A
:103E9000DB329B01AC01C701B6010E943A316B01D4
:103EA0007C01B801110F880B990B0E944A32A701BF
:103EB00096010E94D63218162CF0C701B6010E9456
:103EC0001932762E872DDF91CF911F910F91FF90A0
:103ED000EF90DF90CF90BF90AF909F908F907F90AA
:103EE000089583E290E00E942734813289F484E2CD
:103EF00090E00E942734803159F485E290E00E94DE
:103F0000273491E0893209F090E0892F817008957B
:103F100080E0FCCFCF93C82F6FEF811161E283E285
:103F200090E00E943B346FEFC11160E184E290E0C9
:103F30000E943B346FEFC11169E285E290E0CF91BE
:103F40000C943B34089586E290E00E942734682F59
:103F500070E090E080E0089586E290E00C943B34BD
:103F600080E00E948A1F60E070E0CB010E94AC1FDD
:103F70000E9459210E94452281E00C948A1F0E94D0
:103F8000A21F0E94711F811102C00C94B01F0895DE
:103F9000CF93FB01C281CC2309F19C0122513F4503
:103FA0002031310520F582510E945522C0E08C2F2E
:103FB000CF91089581E00E94050C43E062E081E02A
:103FC0000E94FB05F3CF81E00E94100C43E062E009
:103FD00081E00E94FB05EBCF82E0F6CF8031FFE568
:103FE0009F0789F381319F45B9F3C1E0E0CF80316C
:103FF000EFE59E07F9F281319F45C9F682E0DBCFFC
:104000002FEFFC0120830895CF93DF93EC0188818B
:104010008138A9F028F4803871F0DF91CF910895AC
:10402000823881F08338C9F70E94461A89830E943A
:10403000491A8A83F2CF0E944C1A8983EECF0E94DC
:10404000FB19FBCF0E94311AF8CFCF93DF93EC011D
:1040500088818138E1F028F4803869F0DF91CF91D0
:104060000895823811F18338C9F70E944C1A482FFD
:104070006A81898108C0D9810E94491AC82F0E948B
:10408000461A4D2F6C2FDF91CF910C94EA1B89813A
:104090000E94D11C8981811104C0DF91CF910C94C1
:1040A000421CDF91CF910C94071D8981DF91CF9144
:1040B0000C94431AEF92FF920F931F93CF93DF93C9
:1040C000EC01062FDC01ED91CD01E150E33108F068
:1040D000ADC0F0E0E157FB4C0C94B333198289E09A
:1040E0008A83602FCE01DF91CF911F910F91FF90B6
:1040F000EF900C94342A8981823069F0833071F01A
:104100008130D9F40E9436290E94B9336A837B83B7
:104110008C839D83E6CF0E94A31FF6CF7E0110E023
:10412000812F0E940D15F701928383831F5FF2E0B8
:10413000EF0EF11C1530A1F7D4CF602FCE010E94F5
:104140000020CFCF89818230C1F76A817B818C8149
:104150009D810E94B9330E94AC1FC3CF4B816A81FD
:1041600089810E942B219827892798279D838C83FA
:10417000B8CF2C813D813227232732274B816A819A
:1041800089810E944421ADCF0E945921AACF0E946B
:104190002520A7CF0E940420A4CF0E94E219A1CF1E
:1041A0000E94EE2189839DCF0E94F02198278927C4
:1041B00098279A83898395CF6B8170E089819A8152
:1041C000AE014C5F5F4F9827892798270E94F32103
:1041D00088CF6B8170E089819A81AE014C5F5F4F1F
:1041E0009827892798270E941A227BCF0E94452270
:1041F00078CF0E941921D6CF6B8170E089819A8196
:10420000AE014C5F5F4F9827892798270E94912124
:1042100068CF6B8170E089819A81AE014C5F5F4FFE
:104220009827892798270E94B7215BCF8FEF888333
:1042300058CF84E0089550E0440F551F9CE1699FDA
:10424000400D511D11249CE8899F400D511D1124E2
:10425000CA01879608950F931F93CF93DF930E940F
:104260001B218C010E942734C82FD0E0DC2FCC27E3
:10427000C80101960E9427349E01282BC901DF91B5
:10428000CF911F910F9108950F931F93CF93DF93B9
:10429000122F032F0E941B21EC01602F0E943B3440
:1042A000612FCE010196DF91CF911F910F910C9458
:1042B0003B34AF92BF92CF92DF92EF92FF921F9367
:1042C000CF93DF9382EDC82E80E0D82ED0E0760128
:1042D000C0E014C0F50125913491412F6C2F8D2F32
:1042E0000E94442182E0A80EB11C1F5F1E3091F78E
:1042F0008CE1E80EF11CCF5FC53019F0570110E0DA
:10430000E9CFDF5F8CE8C80ED11CD43001F7DF9114
:10431000CF911F91FF90EF90DF90CF90BF90AF9023
:104320000895EF92FF920F931F93CF93DF93EC01C9
:104330008A017C01E60EF71ECE018796CE15DF05B9
:1043400039F4DF91CF911F910F91FF90EF90089575
:10435000C03322E0D20740F40E942734F801808362
:104360000F5F1F4F2196E8CFF8011082F9CFCF924F
:10437000DF92EF92FF920F931F93CF93DF937C0115
:104380006A018C01060F171FEC01CE018796C0173A
:10439000D10749F4DF91CF911F910F91FF90EF90DA
:1043A000DF90CF900895C03322E0D20740F4FE01A1
:1043B000EE19FF09EC0DFD1D60810E943B34219632
:1043C000E4CF462F843038F4753028F46E3018F47A
:1043D000672F0C942B2190E080E0089580E10895F0
:1043E00089EA91E00895EF92FF920F931F93CF9384
:1043F000DF93EC018A017C01E60EF71ECE01895A9B
:104400009D4FCE15DF0539F4DF91CF911F910F91AC
:10441000FF90EF900895C93A21E0D20740F40E943E
:104420002734F80180830F5F1F4F2196E7CFF801F3
:104430001082F9CFCF92DF92EF92FF920F931F93EA
:10444000CF93DF937C016A018C01060F171FEC01EB
:10445000CE01895A9D4FC017D10749F4DF91CF9102
:104460001F910F91FF90EF90DF90CF900895C93A80
:1044700021E0D20740F4FE01EE19FF09EC0DFD1D0D
:1044800060810E943B342196E3CFCF93DF93C7E551
:10449000D2E060E0CE010E943B342196C11584E059
:1044A000D807B9F7DF91CF910895DF92EF92FF928D
:1044B0000F931F93CF93DF9300D000D0CDB7DEB71B
:1044C000F82E8FE08F1540F08FEF93E00E94273495
:1044D00007E512E08823C1F00F900F900F900F9026
:1044E000DF91CF911F910F91FF90EF90DF90089592
:1044F000011584E0180781F3C8010E942734811157
:1045000001C0FA940F5F1F4FF110F2CF19821A8287
:104510001B821C82DD24D39478018FEFE81AF80AFD
:10452000C8010E94273489831A828823A9F29FEF49
:10453000980F933078F48A83D9820E5F1F4FC7019A
:104540000E9427348B83882339F2CE0101960E9482
:104550006B07E2CF8701F9CFCF93DF93EC0197FF91
:104560000CC0FB018281882341F00E94D722CE013A
:104570009F770E9431230E94122381E0DF91CF9127
:1045800008958CE090E00E94273490E0B0E0A0E035
:104590008093010390930203A0930303B093040359
:1045A0000895609101038CE090E00C943B340E94EC
:1045B0009327869581708093060390910103913033
:1045C00029F4882319F089E30E9415090E946210DA
:1045D000809305030E94751080910103813089F05A
:1045E000882359F0823091F08430B9F08FE39CE950
:1045F0000197F1F700C00000089582EE0E941608AE
:10460000F5CF88E193E00E948205F0CF82EE0E9410
:10461000160887E50E941509E9CF86EE0E94150964
:1046200088E1F8CF80910103813071F0882341F057
:10463000823031F0843099F0809105030C9472102F
:1046400082EE0E94A808F8CF8CE20E9415098091A2
:104650000603882389F389E30E941509EDCF88E2D8
:10466000FBCF0F931F93CF93DF938C01CCE0D0E06F
:10467000C8010C2E02C0969587950A94E2F78F70B8
:104680000E946E072497CC3F8FEFD80789F7DF9100
:10469000CF911F910F9108950F931F93CF93DF93A5
:1046A000EC018B01FB018281882361F00E94621082
:1046B000CE01815E9C458530910520F480930103F5
:1046C0000E94D122B801CE01DF91CF911F910F91AD
:1046D0000C94AC220F931F93CF93DF93C42FD22F50
:1046E000FC0182818823C9F040937C020E942A2920
:1046F00090937B0280937A0280E28C0F883008F0DE
:1047000050C0C77081E001C0880FCA95EAF7DF91F9
:10471000CF911F910F910C941D0910917C021413DD
:1047200035C080917A0290917B020E944229883C98
:10473000910560F5C0E2CD0F1D17B9F080E2810F41
:10474000883040F4177081E001C0880F1A95EAF7AD
:104750000E942409C83048F481E09D2F977001C061
:10476000880F9A95EAF70E941D09802F0E9415096B
:10477000C830B8F4D77081E001C0880FDA95EAF745
:10478000DF91CF911F910F910C94240980E28C0F3F
:10479000883038F4C77081E001C0880FCA95EAF705
:1047A000EFCFDF91CF911F910F9108950F939C014F
:1047B000CB01233F4CE5340759F1A8F4283DFCE533
:1047C0003F0701F1293D4CE53407D1F1273D3C4538
:1047D00091F406E221EE41EE67ED7CE50E946A234A
:1047E00080E00F910895253FFCE53F07E9F0B0F028
:1047F000263F3C45F9F0FC018281882339F1109273
:104800007C02EFCF07E225EE45EE68ED7CE5E6CFD2
:1048100006E221EE40EE63EF7CE5E0CF07E225EE15
:1048200044EE64EF7CE5DACF06E221EE42EE65EF7E
:104830007CE5D4CF07E225EE46EE66EF7CE5CECFF1
:1048400008E221E045EE69ED7CE5C8CF81E0C9CF03
:10485000CF93DF93EC01FB018281882309F419C116
:10486000C230FCE5DF07C0F1C6319CE5D90730F066
:104870009E012A5F3C452930310570F50E943B11AD
:104880009093B7028093B602C031ECE5DE0709F4DD
:10489000CFC008F05BC0C8308CE5D80709F4B6C0BB
:1048A00088F5C430ECE5DE0709F4A8C0C0F4C230D6
:1048B0008CE5D80709F49CC08091B6028260C330B1
:1048C000DC4509F498C08091B6029091B7020E942D
:1048D00049110E947F0B80E0DF91CF910895809174
:1048E000B6028061C630ECE5DE0709F484C0809131
:1048F000B6028860C730DC4508F47DC08091B602FE
:10490000806279C0CC308CE5D80709F489C070F496
:104910008091B6028C60CA30ECE5DE0709F46BC00A
:1049200008F478C08091B6028E7F65C0CE308CE5E9
:10493000D80709F479C08091B6028B7FCF30DC456F
:1049400008F459C08091B6028F7E55C0CB3FECE58C
:10495000DE0709F457C030F5C3318CE5D80709F4F8
:104960006FC078F4C131ECE5DE0709F465C0C231EF
:10497000DC4509F0A8CF0E947F0B8091B6028F77AB
:104980003AC0C5318CE5D80709F462C008F476C096
:104990008091B7028160CA3FDC4509F094CF8093D3
:1049A000B70291CFCF3FFCE5DF0709F44DC088F493
:1049B0008091B7028D7FCD3F9CE5D90781F380912F
:1049C000B7028E7FCE3FDC4550F38091B702836003
:1049D000E6CFC130FDE5DF0709F459C008F444C053
:1049E00080E0C230DD4509F06ECF0E94CE116BCF62
:1049F0008091B60281608093B60265CF8091B60245
:104A00008460F9CF8091B7028260C9CF8091B602ED
:104A10008064F1CF0E947F0B8091B6028068EBCF5B
:104A20008091B6028D7FE7CF8091B602877FE3CF7A
:104A30008091B6028F7DDFCF8091B6028F7BDBCF76
:104A40008091B602837FD7CF8091B7028C7FA7CFAA
:104A50008091B60282FB992790F921E0922790FB82
:104A600082F990FB83F9C7CF8091B702982F909578
:104A700091708E7F892B90FB81F991CF0E947F0BE3
:104A80009091B602892F97FB87F98058B4CF81E0C7
:104A9000ACCF81E021CFCF93DF93EB0186319C45F2
:104AA00011F50E9462109A81992399F08A7A91E017
:104AB00009F490E090937D02811109C089E20E947F
:104AC0001C100E94B51080E0DF91CF91089585E31E
:104AD000F6CF80917D02811104C089E20E942310EB
:104AE000F0CF85E3FBCF81E0EFCFFC01E850FD453F
:104AF000E032F105E8F423E0F695E7952A95E1F731
:104B0000E258FD4F2081AC014770552781E090E0CD
:104B100001C0880F4A95EAF7DB0112963C913323D6
:104B200049F0822B8083809183028260809383028C
:104B300081E0089580958223F5CF0E947525882312
:104B400069F08091830281FF09C08EE792E00E94A4
:104B50005E2A809183028D7F8093830281E0089595
:104B6000E82FE295EF70F0E022A1482F4F7081A16D
:104B700030E0042E02C0359527950A94E2F7220F03
:104B8000331F2270332790E002C0959587954A9590
:104B9000E2F781709927822B932B0895E82FE295F5
:104BA000EF70F0E092A18F7021E030E0082E01C09C
:104BB000220F0A94EAF7209561FB442740F9082E5A
:104BC00001C0440F0A94EAF79223942B92A391A177
:104BD0006170772701C0660F8A95EAF72923622B57
:104BE00061A308952F923F924F925F926F927F92AE
:104BF0008F929F92AF92BF92CF92DF92EF92FF92ED
:104C00000F931F93CF93DF9300D000D0CDB7DEB7C3
:104C100041E051E05C834B838EE7E82E82E0F82E82
:104C200001E010E0EB81FC8181818F3F09F42FC10D
:104C30000E94B0259A838983EB81FC819181E92FC1
:104C4000E295EF70F0E022A19F70A80102C0440F2E
:104C5000551F9A95E2F7CA018095822382A3EB81C2
:104C6000FC818181E82FE295EF70F0E091A18F70D7
:104C7000980101C0220F8A95EAF7892F822B81A320
:104C8000F5E3FA95F1F70000EB81FC818081D12CEE
:104C9000C12C8F3F29F10E94B0256C01EB81FC8172
:104CA0008081E82FE295EF70F0E091A18F7098017C
:104CB00001C0220F8A95EAF7892F822B81A3EB810D
:104CC000FC818081E82FE295EF70F0E092A18F7077
:104CD000980101C0220F8A95EAF7892F822B82A3BF
:104CE000EB81FC818281312C212C8F3F39F10E9494
:104CF000B0251C01EB81FC818281E82FE295EF70E9
:104D0000F0E091A18F70980101C0220F8A95EAF717
:104D1000892F822B81A3EB81FC819281E92FE2957F
:104D2000EF70F0E022A19F70A80102C0440F551F50
:104D30009A95E2F7CA018095822382A355E35A959A
:104D4000F1F70000EB81FC819181E92FE295EF7092
:104D5000F0E021A19F70A80102C0440F551F9A9551
:104D6000E2F7CA018095822381A3EB81FC819181C6
:104D7000E92FE295EF70F0E022A19F70A80102C038
:104D8000440F551F9A95E2F7CA018095822382A3AA
:104D900055E35A95F1F70000EB81FC8181810E9477
:104DA0002804EB81FC8145805680712C612C092EF2
:104DB000000CAA0BBB0B4C015D0184189508A608DA
:104DC000B708A1E8BFEFA50194010E94CE3323816B
:104DD000348150E040E024193509460957090E9402
:104DE0009433121613061406150694F4AFE7B0E0D8
:104DF000A50194010E94C033EB81FC81278130859D
:104E000050E040E024193509460957090E949433BF
:104E1000DA01C9018138FFEF9F07AF07BF0724F40C
:104E200081E89FEFAFEFBFEF80389105A105B10595
:104E300024F08FE790E0A0E0B0E0F70141815281DB
:104E4000052E000C660B770B481759076A077B077E
:104E500039F0928381838091830282608093830200
:104E6000EB81FC8180818F3F19F0B6010E94CE2535
:104E7000EB81FC8182818F3F19F0B1010E94CE2528
:104E800069817A81EB81FC8181810E94CE254B81F1
:104E90005C81475F5F4F5C834B8352E0E50EF11C02
:104EA0008B819C818351914009F0BCCE81E00F90B1
:104EB0000F900F900F90DF91CF911F910F91FF9066
:104EC000EF90DF90CF90BF90AF909F908F907F90AA
:104ED0006F905F904F903F902F9008950C94F22523
:104EE0000E946E27882369F08091830281FF09C0A8
:104EF0008EE792E00E945E2A809183028D7F8093EC
:104F00008302089590938902809388020895E09126
:104F10008802F0918902309721F00190F081E02D14
:104F2000099480E008950E9487270895E0918802FF
:104F3000F0918902309799F020912D01222359F0A8
:104F40002091B60227FF07C0DC012C9111962C930B
:104F5000119725E02C930280F381E02D09940895A8
:104F6000E0918802F0918902309739F022E0DC016B
:104F70002C930480F581E02D0994089520918602F8
:104F8000309187022817390771F090938702809338
:104F90008602E0918802F0918902309721F0068024
:104FA000F781E02D099408952091840230918502C3
:104FB0002817390771F09093850280938402E0915D
:104FC0008802F0918902309721F00084F185E02D6C
:104FD00009940895FC01329680912D01882321F0D7
:104FE0008091B6029EE187FF96E080E0915008F440
:104FF000089521912223D1F38F5FF8CF662301F129
:1050000020912D012223F1F02091B60227FF1AC032
:10501000462F4695469546954E3190F4677021E0AF
:1050200030E002C0220F331F6A95E2F7840F911D12
:10503000FC01828190E02823392381E0232B69F44D
:1050400080E00895FC01329608962191261721F000
:10505000E817F907D1F7F4CF81E008959C01FC012E
:1050600032969FEF80E04191461751F09F3F19F42F
:10507000411101C0982F8F5F8630A9F79F3F09F437
:105080000895290F311D97FD3A95F901628308951E
:10509000FC01329608962191261303C0DF01119777
:1050A0001C92E817F907B9F70895E62FE695E695FB
:1050B000E695EE3168F4E80FF92FF11D677021E0F5
:1050C00030E001C0220F6A95EAF78281822B828349
:1050D0000895E62FE695E695E695EE3170F4E80F33
:1050E000F92FF11D677021E030E001C0220F6A95B1
:1050F000EAF72095828128232283089520912D01AB
:10510000222329F02091B60227FD0C9455280C94F7
:105110002E2820912D01222329F02091B60227FD6F
:105120000C9469280C944828FC01329680912D013A
:10513000882351F08091B60287FF06C08EE1DF011F
:105140001D928A95E9F7089586E0F9CF08950895AC
:1051500008950C94A82880910F03843049F10E948F
:10516000A92880E00E94CB0710928A0288E190E093
:1051700020E40FB6F894A895809360000FBE2093AA
:10518000600083B7817F846083BF83B7816083BF02
:105190007894889583B78E7F83BF0FB6F894A895CF
:1051A00080916000886180936000109260000FBE63
:1051B00008950895CF930E94A7280E94F9150E9490
:1051C000D928C0E08C2F0E940D15892B31F4CF5FB8
:1051D000C530C1F780E0CF91089581E0FCCF0895FC
:1051E0000C94EF280E947F0B0E9487270E94CB0718
:1051F0000C94F0281F921FB61F9211248F939F9337
:10520000AF93BF9380918A02811113C080910703ED
:1052100090910803A0910903B0910A034196A11D42
:10522000B11D8093070390930803A0930903B093E3
:105230000A03BF91AF919F918F911F901FBE1F9046
:10524000189582E084BD93E095BD9AEF97BD809359
:105250006E0008952FB7F89480910703909108038A
:10526000A0910903B0910A032FBF08952FB7F894B6
:1052700060910703709108038091090390910A03DC
:105280002FBF08959C014FB7F89480910703909128
:105290000803A0910903B0910A034FBF821B930B2F
:1052A000089578941F921FB61F9211248F939F9395
:1052B000AF93BF938091070390910803A0910903D6
:1052C000B0910A030196A11DB11D8093070390932D
:1052D0000803A0930903B0930A03BF91AF919F9174
:1052E0008F911F901FBE1F90189581E08093E00062
:1052F00080E28093D8001092C9008FE19EE401976C
:10530000F1F700C0000087E090EBDC018093180308
:1053100090931903A0931A03B0931B0388E19CE0B8
:105320000FB6F894A895809360000FBE909360002C
:10533000FFCF9093C5018093C40108958091B0027E
:10534000089590910F03943029F580938D02709306
:105350008F0260938E029093E9008FEF9091E800A6
:10536000815095FD06C095ED9A95F1F700008111E9
:10537000F5CF8091E80085FF0DC050E040E063E08C
:1053800070E08DE892E00E945A2C8091E8008E77C0
:105390008093E8000895BC0184E00C94A129BC012D
:1053A00083E00C94A1299C0184E08093E9009FEFA5
:1053B0008091E800915085FD06C085ED8A95F1F752
:1053C00000009111F5CF8091E80085FF0CC050E0FE
:1053D00040E066E070E0C9010E945A2C8091E8002C
:1053E0008E778093E8000895CF93DF93EC0180914E
:1053F0002D018823B1F18091B60287FF32C060E2AF
:1054000084E08093E9008FEF9091E800815095FD52
:1054100006C095ED9A95F1F700008111F5CF8091C6
:10542000E80085FF1BC080912D0170E050E040E056
:10543000811104C050E040E068E070E0CE010E94BD
:105440005A2C8091E8008E778093E80080E2FE017C
:10545000A0E9B2E001900D928A95E1F7DF91CF913A
:10546000089568E081E0CDCFCF93FC01603221F553
:1054700080910F03843001F5C091E900CF70209135
:10548000EC00922F917020FD90E8C92B82E0809370
:10549000E9008091E80080FF0CC050E040E060E24D
:1054A00070E0CF010E945A2C8091E8008E778093A3
:1054B000E800CF70C093E900CF910895FC012381EB
:1054C000818180938B0220938C0285E08093E90098
:1054D0008FEF9091E800815095FD06C0F5EDFA95AB
:1054E000F1F700008111F5CF8091E80085FF0DC034
:1054F00050E040E062E070E08BE892E00E945A2CBD
:105500008091E8008E778093E800089580910E03E3
:10551000811109C00E94392E0E94962E8091E200CE
:1055200084608093E200089510920E030895089518
:105530000895089542E061EC81E00E94B52D42E2B9
:1055400061EC84E00E94B52D42E261EC82E00E94B1
:10555000B52D42E260EC83E00E94B52D42E061ECA3
:1055600085E00C94B52D80911103833009F461C05E
:1055700030F48130D1F1823009F49DC008958A3031
:1055800009F489C08B3009F46FC0893009F050C02C
:1055900080911003813209F04BC0809114039091E7
:1055A0001503009719F0029709F042C08091E800B6
:1055B000877F8093E8008091E80082FF35C090915A
:1055C000F3008091F200029729F48091F1008B7F23
:1055D000813021F48091F1008093B0028091E80045
:1055E0008B778093E8000C94E92D80911003813A29
:1055F000F9F48091E800877F8093E800809114039C
:1056000090911503892B61F460E280E992E070E0EB
:105610000E94F82C8091E8008B778093E800089531
:1056200060E090E080E0F3CF80910F038111C3CF61
:10563000089580911003813AD9F7809114039091D5
:105640001503892BA9F78091E800877F8093E800F4
:105650008091E80080FFFCCF80912D018093F100C4
:105660008091E8008E77BDCF80911003813201F7E1
:105670008091140390911503892BD1F68091E80055
:10568000877F8093E8000E94E92D80911203809328
:105690002D010C947F0B80911003813249F680918B
:1056A000E800877F8093E8000E94E92D8091130332
:1056B0008093B102089580911003813A09F0B8CF28
:1056C0008091E800877F8093E8008091E80080FF68
:1056D000FCCF8091B102C2CF84B7877F84BF0FB661
:1056E000F894A89580916000886180936000109282
:1056F00060000FBE80E890E00FB6F89480936100E0
:10570000909361000FBE0C94F3110E94392E0E94F9
:10571000962EE2EEF0E080818460808378940E948F
:105720001F310E94071283E291E00C948227CF93ED
:10573000DF93CDB7DEB7A0970FB6F894DEBF0FBEEC
:10574000CDBF80910F03853031F480910F038530F8
:1057500091F10E94F2280E941C1280910F03843064
:1057600009F583E08093E9008091E80082FF1AC088
:105770008091E80090E085FF09C050E040E060E2E1
:1057800070E0CE0101960E94A92C91E08091E80082
:105790008B778093E800992329F060E2CE0101968F
:1057A0000E945A20A0960FB6F894DEBF0FBECDBF60
:1057B000DF91CF9108950E94AB2880910D0388233B
:1057C00021F20E94DA28882309F4BFCF0E94442CDA
:1057D0000E947F0BBACF0C94ED2B292F3327233057
:1057E000310521F168F42130310509F443C022303C
:1057F000310509F444C090E080E030E020E026C0AC
:105800002132310551F122323105A9F76430710599
:1058100090F7FB01EE0FFF1FED54FE4F2081318109
:1058200061557E4FFB01808190E010C09927813047
:10583000910581F0009729F00297E9F6EDE2F5E095
:1058400002C0E5E5F5E0849190E09F01FA01318323
:1058500020830895E5E4F5E0F6CF6430710558F64D
:10586000660F771FFB01E554FE4F2081318189E0EF
:1058700090E0ECCF82E190E02DEC35E0E7CF84E7DB
:1058800090E029E535E0E2CF80E189BD82E189BD84
:1058900009B400FEFDCF8091D8008F7D8093D800A1
:1058A0008091E00082608093E0008091E00081FDC3
:1058B000FCCF0895AF92BF92CF92DF92FF920F93E9
:1058C0001F93CF93DF936C01EB018A010E94082E96
:1058D000F82E811123C00115110539F0F8018081DE
:1058E0009181C81BD90BC80ED91EB12CA12C2097B1
:1058F000A9F08091E80085FD22C08091E8008E77B4
:105900008093E80001151105A1F0F80180819181D3
:10591000A80EB91EB182A08285E0F82E8F2DDF91EE
:10592000CF911F910F91FF90DF90CF90BF90AF90DC
:1059300008950E94082E8823D1F2F82EEFCFF601A9
:1059400081916F018093F1002197FFEFAF1ABF0A99
:10595000CECFAF92BF92CF92DF92FF920F931F9361
:10596000CF93DF936C01EB018A010E94082EF82E81
:10597000811123C00115110539F0F8018081918151
:10598000C81BD90BC80ED91EB12CA12C2097A9F089
:105990008091E80085FD22C08091E8008B7780939C
:1059A000E80001151105A1F0F80180819181A80E90
:1059B000B91EB182A08285E0F82E8F2DDF91CF91A4
:1059C0001F910F91FF90DF90CF90BF90AF900895FF
:1059D0000E94082E8823D1F2F82EEFCF8091F1009B
:1059E000F60181936F012197FFEFAF1ABF0ACECF67
:1059F000FC01809116039091170386179707A0F07A
:105A00006115710529F49091E8009E779093E80064
:105A100090E06115710551F4911108C08091E80082
:105A200082FF34C080E00895BC01F2CF80910F0363
:105A30008823C1F18530C1F18091E80083FD30C039
:105A40008091E80082FDEACF8091E80080FFE1CFFD
:105A50008091F3002091F200382F6115710519F043
:105A60002830310558F091E02830310509F090E0F8
:105A70002091E8002E772093E800CBCF819180938E
:105A8000F100615071092F5F3F4FE7CF80910F0305
:105A9000882341F0853041F08091E80083FFBECF3C
:105AA00081E0089582E0089583E00895FC018091EB
:105AB00016039091170386179707A0F061157105DB
:105AC00029F48091E8008E778093E80090E06115DA
:105AD000710551F4911108C08091E80082FF35C032
